:020000040800F2
:1000000000000220B9020008BF020008C302000875
:1000100035030008390300088103000800000000D0
:10002000000000000000000000000000C9030008FC
:10003000CD03000800000000D1030008D50300082C
:10004000E5030008E5030008E5030008E5030008F0
:10005000E5030008E5030008E5030008E5030008E0
:10006000E5030008E5030008E5030008E5030008D0
:10007000E5030008E5030008E5030008E5030008C0
:10008000E5030008E5030008E5030008E5030008B0
:10009000E5030008E5030008E5030008E5030008A0
:1000A000E5030008E5030008E5030008E503000890
:1000B000E5030008E5030008E5030008E503000880
:1000C000E5030008E5030008E5030008E503000870
:1000D000E5030008E5030008E5030008E503000860
:1000E000E5030008E5030008E5030008E503000850
:1000F000E5030008E5030008E5030008E503000840
:10010000E5030008E5030008E5030008E50300082F
:10011000E5030008E5030008E5030008E50300081F
:10012000E5030008E5030008E5030008E50300080F
:10013000E5030008E5030008E5030008E5030008FF
:10014000E5030008E5030008E5030008E5030008EF
:10015000E5030008E5030008E5030008E5030008DF
:10016000E5030008E5030008E5030008E5030008CF
:10017000E5030008E5030008E503000800000000AF
:10018000E5030008E503000800B583B000F05CFE5D
:10019000384B394A1360394A1360394900E0214627
:1001A000384B99420BD20A684B6801F10C048868FD
:1001B0009842F4D91168196004330432F8E72E4BE1
:1001C0001A68314B9A4200D0FEE72C4B1A682F4B2D
:1001D0009A42F9D1274B2E4A13602E4A13602E4BB8
:1001E00005E00020106004329342FAD80B462B4AF7
:1001F000934204D2194651F8082B5B68F4E7244B6C
:100200001B6813B9234B1B6803B1FEE700F0C8FF5E
:10021000694601A800F0AAFD214C224BE41AA41063
:100220000025AC4214DC204C204BE41AA41000251D
:10023000AC4213DC0099019800F0BAFF05461C4C53
:100240001C4BE41AA410002C0EDC284600F060FDC4
:10025000144B53F8253098470135E2E7134B53F818
:10026000253098470135E3E7013C124B53F8243021
:100270009847E8E7BABADECA00000020BC090020AF
:10028000E8030008000400087856341232547698C7
:10029000C0090020B00A0020000400081004000873
:1002A00010040008100400081004000810040008DE
:1002B000100400081004000808B5FFF765FF00BE31
:1002C000FEE71EF0040F0CBFEFF30880EFF3098088
:1002D0007146414A10472DE9F04182B004468846F4
:1002E000124B5E6B9F6B9D6A1B6B13F0020F03D06A
:1002F0000E4BDB6A002B0CDB0D4800F049FDCDF8FE
:1003000000803B4632462946204600F0A9FD00BE4B
:10031000FEE74BF6AB6100F01DFE0028ECD0034B6E
:100320004FF00042DA6202B0BDE8F08100ED00E07B
:10033000045C000800BEFEE71EF0040F0CBFEFF3E4
:100340000880EFF309807146244A10472DE9F041F7
:1003500082B004468846084B5E6B9F6B9D6A0748D7
:1003600000F016FDCDF800803B4632462946204677
:1003700000F076FD00BEFEE700ED00E0145C000832
:100380001EF0040F0CBFEFF30880EFF309807146F5
:10039000134A10472DE9F04182B004468846084BC5
:1003A0005E6B9F6B9D6A074800F0F2FCCDF8008001
:1003B0003B4632462946204600F052FD00BEFEE78D
:1003C00000ED00E0205C000800BEFEE700BEFEE796
:1003D00000BEFEE770470000D70200084D0300088A
:0803E0009503000800BEFEE7D2
:1003E800D05E000800000020C0090020D05E000890
:1003F8000000001000000010C0090020B40A00200E
:080408000000001000000010CC
:1004400010B50446074B1868074BA3FB0030800922
:1004500000F090F8002221464FF0FF3000F044F801
:10046000002010BD0C000020D34D621008B50B4BCE
:100470001A6842F400721A601A6842F480621A60C4
:100480001A6842F480721A60032000F00FF80F20FF
:10049000FFF7D6FF00F0E4FE002008BD003C02405C
:1004A000014B1868704700BF840A002010B504464D
:1004B000C31E042B0FD80A4AD36823F4E0631B043D
:1004C0001B0C240204F4E064234343F0BF6343F4B1
:1004D0000033D36010BDA421024800F04FFCEAE7CE
:1004E00000ED00E0345A000870B505460C4616468B
:1004F0000F2A25D80F2C28D81B4BDB68C3F3022307
:10050000C3F10702042A28BF0422191D062921D994
:10051000033B4FF0FF3101FA02F224EA02049C404F
:1005200001FA03F326EA03063443002D14DB240109
:10053000E4B205F1604505F5614585F8004370BDFD
:10054000BC210A4800F01AFCD4E7BD21074800F09E
:1005500015FCD1E70023DCE705F00F052401E4B228
:10056000034B5C55EBE700BF00ED00E0345A000898
:1005700014ED00E00138B0F1807F0AD2064B5860DC
:10058000064AF02182F823100020986007221A60A2
:1005900070470120704700BF10E000E000ED00E070
:1005A00010B50446042800D038B9042C0BD0094AF1
:1005B000136823F00403136010BD40F2B311064822
:1005C00000F0DCFBF1E7034A136843F00403136017
:1005D000F2E700BF10E000E0345A000830B583B005
:1005E000044603680F2B29D8236813F0010F3DD070
:1005F0006368012B01D9052B25D1A34B9B6803F020
:100600000C03042B29D0A04B9B6803F00C03082B90
:100610001ED022799D4B1A706368002B50D0FFF7D3
:100620003FFF0546984B1B6813F4003F1ED1FFF7B0
:1006300037FF401B6428F5D90320E3E1F5219448F6
:1006400000F09CFBD0E7FA21914800F097FBD4E73B
:100650008D4B5B6813F4800FDBD08B4B1B6813F45E
:10066000003F03D06368002B00F0C981236813F0BA
:10067000020F5DD0E368012B31D823691F2B34D8DA
:10068000814B9B6813F00C0F3AD07F4B9B6803F0B3
:100690000C03082B2FD0E368002B74D07D4B012274
:1006A0001A60FFF7FDFE0546774B1B6813F0020F3B
:1006B0005AD1FFF7F5FE401B0228F5D90320A1E12E
:1006C000FFF7EEFE0546704B1B6813F4003FCDD0DC
:1006D000FFF7E6FE401B6428F5D9032092E14FF4B2
:1006E00096716B4800F04AFBC7E740F22D1168484D
:1006F00000F044FBC4E7644B5B6813F4800FCAD17D
:10070000614B1B6813F0020F04D0E368012B01D08A
:10071000012077E15C48036823F0F8032169F8229F
:1007200092FAA2F2B2FA82F201FA02F213430360E1
:10073000236813F0080F50D06369012B35D8636923
:10074000002B38D0544B01221A60FFF7A9FE054652
:100750004D4B5B6F13F0020F3FD1FFF7A1FE401B23
:100760000228F5D903204DE14748036823F0F80338
:100770002169F82292FAA2F2B2FA82F201FA02F2A6
:1007800013430360D4E7434B00221A60FFF788FE4F
:1007900005463D4B1B6813F0020FC9D0FFF780FEE2
:1007A000401B0228F5D903202CE140F26D11384896
:1007B00000F0E4FAC3E7384B00221A60FFF770FE3E
:1007C0000546314B5B6F13F0020F06D0FFF768FE52
:1007D000401B0228F5D9032014E1236813F0040F0D
:1007E00060D0A368012B01D9052B1FD100230193F1
:1007F000254B1A6C42F080521A641B6C03F0805334
:100800000193019B254A136843F480731360FFF73B
:1008100047FE0546214B1B6813F4807F0CD1FFF780
:100820003FFE401B0228F5D90320EBE040F2971170
:10083000174800F0A3FAD9E7227A194B1A70A36877
:1008400083B1FFF72DFE05460F4B1B6F13F0020F10
:1008500028D1FFF725FE401B41F288339842F3D997
:100860000320CFE0FFF71CFE0546074B1B6F13F07C
:10087000020F17D0FFF714FE401B41F28833984255
:10088000F3D90320BEE000BF003802400238024026
:10089000785A000800004742800E4742007000402E
:1008A00070380240A369022B39D8A369002B00F0ED
:1008B000A880564A926802F00C02082A00F0A48030
:1008C000022B40F08880E36913B1B3F5800F2CD17F
:1008D000236A3F2B2FD8636A323BB3F5BF7F30D8F2
:1008E000A36A022B05D0042B03D0062B01D0082BC2
:1008F0002DD1E36A043B0B2B2FD8454B00221A6005
:10090000FFF7CEFD0546414B1B6813F0007F2AD050
:10091000FFF7C6FD401B0228F5D9032072E04FF413
:10092000E6713C4800F02AFABFE740F2D511394899
:1009300000F024FACCE74FF4EB71364800F01EFAD1
:10094000C9E740F2D711334800F018FAC8E74FF46E
:10095000EC71304800F012FACBE740F2D9112D4883
:1009600000F00CFAC9E7E369226A1343616A47F6AB
:10097000C07292FAA2F2B2FA82F201FA02F21343C0
:10098000A26A5208013A4FF4403191FAA1F1B1FA4A
:1009900081F18A401343E16A4FF0706292FAA2F249
:1009A000B2FA82F201FA02F21343184A5360184B6A
:1009B00001221A60FFF774FD0446144B1B6813F004
:1009C000007F06D1FFF76CFD001B0228F5D903203C
:1009D00018E0002016E00E4B00221A60FFF760FDC1
:1009E00004460A4B1B6813F0007F06D0FFF758FD42
:1009F000001B0228F5D9032004E0002002E00120BA
:100A000000E0002003B030BD0120FBE700380240C9
:100A100060004742785A0008214B9B6803F00C03A2
:100A2000042B3AD0082B01D01E4870471C4B586845
:100A300000F03F005B6813F4800F1ED01A4AB2FB2F
:100A4000F0F2174B586847F6C073184093FAA3F3B7
:100A5000B3FA83F3D84000FB02F0114B5B6803F458
:100A600040334FF4403292FAA2F2B2FA82F2D3400B
:100A700001335B00B0FBF3F070470A4AB2FBF0F2BF
:100A8000074B586847F6C073184093FAA3F3B3FABC
:100A900083F3D84000FB02F0DFE70348704700BF54
:100AA000003802400024F40000127A0070B50446B9
:100AB0000D460368013B0E2B11D8072D15D88C4B22
:100AC0001B6803F00F03AB4215D2EBB2884A1370D8
:100AD000136803F00F03AB420DD0012070BD40F24C
:100AE0003721844800F04AF9E7E74FF40E71814856
:100AF00000F044F9E3E7236813F0020F18D0A3686D
:100B00007BB1802B0DD0902B0BD0A02B09D0B02B1C
:100B100007D0C02B05D0D02B03D0E02B01D0F02B79
:100B200037D1754A936823F0F003A1680B439360B3
:100B3000236813F0010F73D06368032B2FD8636809
:100B4000012B32D09A1E012A36D96B4A126812F054
:100B5000020F00F0CA8068498A6822F0030213433A
:100B60008B60FFF79DFC06466368012B2BD0022BA0
:100B700038D0032B45D0604B9B6813F00C0F4FD03F
:100B8000FFF78EFC801B41F288339842F3D9032093
:100B9000A4E740F24F21574800F0F0F8C1E740F2D7
:100BA0005621544800F0EAF8C9E7534A126812F493
:100BB000003FD0D1012091E74F4A126812F0007F28
:100BC000C9D101208AE74C4B9B6803F00C03042B2E
:100BD00026D0FFF765FC801B41F288339842F2D99A
:100BE00003207BE7444B9B6803F00C03082B17D0D2
:100BF000FFF756FC801B41F288339842F2D903205C
:100C00006CE73D4B9B6803F00C030C2B08D0FFF7FF
:100C100047FC801B41F288339842F2D903205DE7FC
:100C2000334B1B6803F00F03AB4209D9EAB2304BD8
:100C30001A701B6803F00F03AB4201D001204DE78F
:100C4000236813F0040F14D0E3685BB1B3F5805F41
:100C500008D0B3F5A05F05D0B3F5C05F02D0B3F5FF
:100C6000E05F36D1244A936823F4E053E1680B43F4
:100C70009360236813F0080F15D023695BB1B3F5B7
:100C8000805F08D0B3F5A05F05D0B3F5C05F02D098
:100C9000B3F5E05F23D1184A936823F460432169D8
:100CA00043EAC1039360FFF7B7FE134B9B6803F061
:100CB000F003F02292FAA2F2B2FA82F2D3400F4A83
:100CC000D35CD8400E4B18600F20FFF7B9FB002013
:100CD00004E74FF42D71074800F050F8C2E740F2E6
:100CE000BB21044800F04AF8D5E70120F6E600BF32
:100CF000003C0240785A000800380240685A000858
:100D00000C000020014B1868704700BF0C00002049
:100D1000FEE7000008B5034800F052F80120FFF795
:100D2000F7FF00BFA85A000808B503460C4A12682E
:100D30005AB10B4A1068033323F003030344094AF2
:100D4000934206D8064A136008BD054A0649116059
:100D5000EFE700F087FA0C2303604FF0FF30F3E772
:100D6000C409002000FC0120B40A00200123036014
:100D7000014B0B60704700BF0400002008B50A4615
:100D80000146024800F004F8FFF7C4FFBC5A00080F
:100D90000FB400B583B004AB53F8042B019380214A
:100DA000064800F013FB002803DD0146034800F06D
:100DB00047F803B05DF804EB04B07047CC0900209D
:100DC00010B5044600F05CFA0146204600F038F801
:100DD0000121024800F034F810BD00BF805B00081C
:100DE0002DE9F04385B004460F4643560BB10E463D
:100DF0001EE0042528462146ABBE0446384605B011
:100E0000BDE8F08314F9011B04AA1A4402F8101C6F
:100E10000133AB42F6D304AA1344002203F8102C8A
:100E20004FF00408E94640464946ABBE8046761B73
:100E3000002EE3D03546102E28BF10250023E8E70A
:100E400008B5FFF7CDFF08BD08B500F093F8024ADA
:100E5000024B9A6008BD00BF0000000800ED00E0F2
:100E6000F8B504460D4617461E462748FFF790FF83
:100E700021682648FFF78CFF61682548FFF788FF47
:100E8000A1682448FFF784FFE1682348FFF780FF4B
:100E900021692248FFF77CFF61692148FFF778FF4D
:100EA000A1692048FFF774FFE1691F48FFF770FF51
:100EB0001E48FFF76DFF29461D48FFF769FF1D4CCF
:100EC000E16A1D48FFF764FF216B1C48FFF760FFD4
:100ED000E16B1B48FFF75CFF15F0800F0AD115F49A
:100EE000004F0CD11748FFF753FF06991648FFF73C
:100EF0004FFFF8BD39461548FFF74AFFEFE7314687
:100F00001348FFF745FFEDE7E85A0008F85A0008D4
:100F1000085B0008185B0008285B0008385B0008C5
:100F2000485B0008585B0008685B0008785B0008B5
:100F3000845B000800ED00E0945B0008A45B0008FF
:100F4000B45B0008E45B0008EC5B0008C45B0008CD
:100F5000D45B000883691A888A4201D00020704758
:100F60000268033A012A03D80233836101207047E3
:100F7000002070470C4B1A6842F001021A600021F1
:100F800099601A6822F0847222F480321A60074A4B
:100F90005A601A6822F480221A60D960044B4FF01C
:100FA00000629A60704700BF003802401030002491
:100FB00000ED00E0224B9B6803F00C03042B14D0DF
:100FC000082B16D01BB11F4B1F4A1A6002E01D4BA5
:100FD0001D4A1A601A4B9B68C3F303131B4AD15C6A
:100FE000184A1368CB4013607047164B184A1A60B2
:100FF000F0E7134B5A685B6803F03F0312F4800F6D
:1010000013D0134AB2FBF3F20D4B5B68C3F38813A2
:1010100003FB02F30A4A5268C2F301420132520052
:10102000B3FBF2F3074A1360D4E7074AB2FBF3F2CB
:10103000034B5B68C3F3881303FB02F3EAE700BFCB
:10104000003802400C0000200024F400305C00084E
:1010500000127A00154A136B43F008031363002350
:101060000F2B22D830B403E001339BB20F2B1AD8D8
:1010700001229A400C8A2242F6D002684C685D0038
:10108000AC402243026082680C68AC40224382601C
:10109000C268CC68AC402243C26042688C689C4005
:1010A00022434260E0E730BC70477047003802409E
:1010B0008369194381617047836943EA0141816112
:1010C0007047036843F0010303607047054A136CDF
:1010D00043F00103136403680360436943F00103B1
:1010E0004361704700380240C162704781627047B7
:1010F0000023036170470369194201D10120704741
:101100000020704730B595B000240194214B1A6C33
:1011100042F080521A641B6C03F080530193019BD0
:1011200002941D4B1A6842F480421A601B6803F453
:1011300080430293029B0123089309934FF4800399
:101140000F93082310934FF4A8731193022512955F
:10115000072313930E9508A8FFF740FA0F23039374
:10116000049505944FF4A05306934FF480530793CE
:10117000052103A8FFF79AFCFFF7C4FD074BA3FB6B
:1011800000308009FFF7F6F90420FFF709FA15B0DF
:1011900030BD00BF0038024000700040D34D6210E7
:1011A00008B5FFF763F9FFF7ADFFFFF703FF08BDD1
:1011B00000B587B0002303930493012302934FF4F7
:1011C0007043059306A9032341F8143D2148FFF716
:1011D00041FF4FF08040FFF779FF2F214FF0804013
:1011E000FFF784FF1C494FF08040FFF77DFF4FF071
:1011F0008040FFF766FF15E0184A1378B3FA83F3CF
:101200005B0913704FF08040FFF772FF11E0114C43
:101210004FF480512046FFF74BFF4FF4005120461A
:10122000FFF74AFF01214FF08040FFF764FF0028DD
:10123000E2D00A4B1B78002BE9D0064C4FF400514A
:101240002046FFF735FF4FF480512046FFF734FF6B
:10125000E8E700BF000C02401FA107004C0A002075
:1012600070470000014B1868704700BF1000002055
:10127000000000000000000000000000000000006E
:1012800090F800F06DE9024520F007016FF0000CC6
:1012900010F0070491F820F040F049804FF000046E
:1012A0006FF00700D1E9002391F840F000F1080049
:1012B00082FA4CF2A4FA8CF283FA4CF3A2FA8CF381
:1012C0004BBBD1E9022382FA4CF200F10800A4FAE8
:1012D0008CF283FA4CF3A2FA8CF3E3B9D1E904233C
:1012E00082FA4CF200F10800A4FA8CF283FA4CF373
:1012F000A2FA8CF37BB9D1E9062301F1200182FA2D
:101300004CF200F10800A4FA8CF283FA4CF3A2FA32
:101310008CF3002BC6D0002A04BF04301A4612BA40
:10132000B2FA82F2FDE8024500EBD2007047D1E943
:10133000002304F00305C4F100004FEAC50514F0D2
:10134000040F91F840F00CFA05F562EA05021CBFA3
:1013500063EA050362464FF00004A9E770B5141E66
:101360009AB005462CDB1A464FF4027300910491A3
:10137000ADF80C3013D0013C4FF6FF761E9B029463
:1013800069460594ADF80E6000F030F8421C01DAB1
:101390008B232B60009B00221A701AB070BD1E9B1D
:1013A00002944FF6FF7669460594ADF80E6000F0A2
:1013B0001DF8431C01DB1AB070BD8B232B60FAE7CC
:1013C0008B2303604FF0FF30F5E700BF10B582B00C
:1013D000054C0093246813460A4601462046FFF751
:1013E000BDFF02B010BD00BF100000202DE9F04F7E
:1013F000C3B00C460C9191460F930D9002F0D2F9B8
:1014000003681A931846FFF73BFFA38919901D063E
:1014100003D52369002B00F039870023CDE926335B
:10142000CDE916330DF1C80813931593149318934F
:101430001B930A93CDF89480C246CB469BF80030AC
:10144000002B00F09980252B5C4602D11CE0252B57
:1014500003D014F8013F002BF9D1A4EB0B0585B1A3
:10146000DDE9263201332A44072BCAF800B0CAF856
:101470000450CDE9263277DC0AF1080A0A9B2B4496
:101480000A932378002B77D000231A468DF8773003
:1014900019460B9399464FF0FF306378099004F199
:1014A000010B0BF1010B1F46A7F12003582B00F293
:1014B0007483DFE813F0D20272037203CD02720369
:1014C00072037203720372037203C102BC027203DD
:1014D00066034C0372036B03B700B700B700B70095
:1014E000B700B700B700B700B7007203720372030A
:1014F0007203720372037203720372037203340382
:10150000F6027203F6027203720372037203F102AF
:1015100072037203A60072037203720372037203F2
:101520007500720372039A027203720372037203EC
:101530007203720372037203720372037B012D0143
:10154000F602F602F60228012D01720372031B0156
:1015500072030401A800CB00C6007203DB00720313
:10156000770072037203DA0225AADDE90C1002F09B
:10157000D7FF40B9C24681E7279B23B10D980C994C
:1015800025AA02F0CDFF0C9B9B8913F0400F0A9B0C
:1015900018BF4FF0FF330A930A9843B0BDE8F08FAD
:1015A00049F0100919F0200F00F03B850F9D073519
:1015B00025F0070303F10802D3E900450F92012348
:1015C000099A002601328DF8776000F03C8429F0FA
:1015D0008002079254EA050240F0BE80099A002A70
:1015E00040F0CF86002B40F0EB8419F001030E93FE
:1015F00000F05D8542AB1A46302302F8413D11925E
:10160000CBE049F0100919F0200300F015850F9D7B
:10161000073525F0070303F10802D3E900450F92CF
:101620000023CDE7A7F1300300201BF8017B00EB7E
:10163000800003EB4000A7F13003092BF5D90B9094
:1016400032E749F020099BF800302AE70F9AA24BB5
:1016500014681893043247F63003ADF8783049F037
:1016600002090F92002502237827A9E70F9A136831
:10167000119300248DF87740151D002B00F0308663
:10168000099A531C00F0D8862146119802F040FBBD
:10169000002800F0B987119B0994C31A0E930F9587
:1016A000CDF81C9023EAE3739DF8776008931294B9
:1016B000002E00F08D80089B0133089388E0002AFB
:1016C00041F0D7800F9A19F0200F52F8043B0F9287
:1016D00040F02F8519F0100F40F0298619F0400FC7
:1016E00000F02586BDF828201A80A7E69BF8003078
:1016F0006C2B03BF9BF8013049F020090BF1010B63
:1017000049F01009CDE649F040099BF80030C8E6E1
:10171000002A41F09A8019F0200F00F009820F9DF5
:10172000073525F00703D3E9004503F108020F92BE
:10173000002C75F10003C0F2C684099B9DF8776008
:10174000013300F0CB8429F08002079254EA0502AD
:101750004FF001033FF442AF012B00F07983022BDD
:1017600000F09983414600E01146E20842EA4572E2
:10177000E80804F0070305461446303354EA050030
:1017800001F8013C01F1FF32EED107981192C00738
:1017900000F17084A8EB02030E93099B0E9A93420A
:1017A000B8BF134608930023129381E70F990023D3
:1017B0000A688DF877301E468DF8A02001230A1D97
:1017C000CDE90793CDE90E3228AB09961296119315
:1017D000079B13F00203109302D0089B0233089377
:1017E000079B279C13F084093FD10B9B089A9D1AF5
:1017F000002D3ADD102D269B29DD52462146AA46B2
:101800001026DDE90C5406E0AAF1100ABAF1100F17
:1018100002F1080218DD013330481031072BCDE901
:101820002631C2E90006EFDD25AA2946204602F04E
:1018300077FE00287FF4A7AEAAF1100ABAF1100FC4
:10184000DDE926314246E6DC55460C469246013338
:10185000224A2C44072BCDE92634CAE9002500F39F
:101860006A859DF877600AF1080A76B1269B0133F4
:1018700001340DF177010122072BCDE92634CAE9A5
:10188000001200F3F2820AF1080A109B6BB1269B4A
:10189000013302341EA90222072BCDE92634CAE9FE
:1018A000001200F3ED820AF1080AB9F1800F00F08E
:1018B000E881099B0E9A9D1A002D3EDD102D269A77
:1018C000DFF81C902EDD484653462146B9461026C7
:1018D000DDE90CA407460AE0645C0008845C0008AB
:1018E000945C0008103D102D03F1080315DD013252
:1018F0001031072ACDE92621C3E90076F2DD25AAB9
:101900005146204602F00CFE00287FF43CAE103D0C
:10191000102DDDE926214346E9DC9A463B460C467C
:101920004F46994601322C44072ACDE92624CAE9BC
:10193000009500F3C7820AF1080A079BDE0500F153
:101940004281269B119ACAF800200E9ACAF80420F8
:1019500001331444072B2794269300F31A820AF1CB
:10196000080A079B5B0731D50B9B089A9D1A002D2F
:101970002CDD102D269B1FDD1026DDE90C9704E0E1
:10198000103D102D0AF1080A16DD0133C74A103444
:10199000072BCDE92634CAE90026F1DD25AA494600
:1019A000384602F0BDFD00287FF4EDAD103D102D4E
:1019B000DDE92634C246E8DC0133BC4A2C44072B5F
:1019C000CDE92634CAE9002500F36783DDE90A3250
:1019D00008998A42ACBF9B185B180A93002C40F010
:1019E000A18100232693C24628E5002A40F03187D2
:1019F000AF4B189319F0200F3FD00F9D073525F0FE
:101A00000703D3E9004503F108020F9219F0010F13
:101A100000F0C18054EA050300F0BD8030238DF84A
:101A200078308DF8797049F002090223C8E59BF8F7
:101A3000003001222B2134E50F989BF80030046818
:101A40000B94002C00F10400C0F21C840F9028E5D8
:101A500049F001099BF8003023E59BF8003000298C
:101A60007FF41FAD012220211BE5002A40F0E18612
:101A7000904B189319F0200FBFD10F9B19F0100F46
:101A800053F8044B0F9340F0168319F0400F00F009
:101A90001283A4B20025B9E749F008099BF8003089
:101AA000FFE4002A40F0D9860F9D834B073525F0CF
:101AB0000706D6E9000121F00044149108364FF0E2
:101AC000FF322146159005460F9603F0F5FD0028DC
:101AD00040F03E83284621464FF0FF32764B03F01C
:101AE000CDFD002840F03483DDE91502179B1499E1
:101AF00003F0BAFD002840F03A859DF877606F4A00
:101B00006F4B0321002029F08004472FD8BF1A46CD
:101B1000CDE90810079411920E911290C8E5002AA1
:101B200040F09F8649F0100919F0200F7FF4F7ADBF
:101B30000F9B19F0100F53F8044B0F9340F0BD8228
:101B400019F0400F00F0B98224B2E517F0E59BF8D8
:101B500000702A2F0BF1010000F04086A7F130033E
:101B6000092B834600F24C8500201BF8017B00EB1B
:101B7000800003EB4000A7F13003092BF5D9099051
:101B800092E49BF8003049F004098AE449F08009A6
:101B90009BF8003085E4022312E5002A40F06586B8
:101BA000002F3FF4E9AC002301221E468DF8773068
:101BB0000993129328AB08928DF8A070CDF81C9071
:101BC0000E92119304E6652F40F3EE80DDE91502D5
:101BD000179B149903F03EFD002800F07E81269BA0
:101BE000384ACAF80020013301340122072BCDE91D
:101BF0002634CAF8042000F3F1830AF1080A1F9B77
:101C0000139A279C934280F24382269B1A9ACAF821
:101C10000020199ACAF8042001331444072BCDE997
:101C2000263400F352830AF1080A139B5D1E002D2F
:101C30007FF797AE102D269ADFF88C9040F3A7839C
:101C4000234610264C460D9FDDF8309005E00AF142
:101C5000080A103D102D40F3988301321033072AF3
:101C6000CDE92623CAE90046F1DD25AA49463846D2
:101C700002F056FC00287FF486ACDDE92623C2463C
:101C8000E7E70B9B089A9D1A002D7FF712AE102DE7
:101C9000269ADFF8349039DD484653462146B94646
:101CA0001026DDE90CA4074615E000BF845C00089F
:101CB000505C0008645C0008FFFFEF7F445C000894
:101CC000405C0008805C0008945C0008103D102D0A
:101CD00003F1080315DD01321031072ACDE9262171
:101CE000C3E90076F2DD25AA5146204602F018FC31
:101CF00000287FF448AC103D102DDDE92621434635
:101D0000E9DC9A463B460C464F46994601322C4444
:101D1000072ACDE92624CAE9009500F342830AF197
:101D2000080AC6E525AADDE90C1002F0F9FB002837
:101D30003FF457AE27E425AADDE90C1002F0F0FBD2
:101D400000287FF420AC1F9B279CC2461BB9139A26
:101D5000002A00F07C83269A1A99CAF80010199973
:101D6000CAF8041001320C44072A2794269200F383
:101D700057840AF1080A002BC0F29084139B119932
:101D800001321C44072ACDE92624CAE900137FF753
:101D9000E6AD25AADDE90C1002F0C2FB00287FF4B5
:101DA000F2AB279CC246DCE5139A269B012A04F17C
:101DB000010403F101050AF1080640F347810123FC
:101DC000119ACAF80020072DCDE92654CAF804302C
:101DD00000F3BF82199B1A9A01351C44072DCDE9E7
:101DE0002654C6E9002300F3C08208366F1C0E9704
:101DF0000997139F179B1499DDE91502013F06F11E
:101E0000080A03F027FC002840F0E0803C44119BC6
:101E10007760099F27940133072F3360269700F3DB
:101E2000448206F11003AA1C564609929A461B9A50
:101E300072601444099A279421AB072A26923360D2
:101E40007FF78FADA5E7012BCDF81C907FF487AC11
:101E5000002D08BF0A2C80F0488142AB303403F8D3
:101E6000414D119301230E9397E425AADDE90C104F
:101E700002F056FB00287FF486AB279CC24604E59F
:101E800025AADDE90C1002F04BFB00287FF47BABA8
:101E9000279CC24609E5DDF860C04246230904F0EC
:101EA0000F0043EA057329091C460D461CF8003053
:101EB00002F8013D54EA0503F0D1A8EB02031192A8
:101EC0000E936AE425AADDE90C1002F029FB002834
:101ED0007FF459AB279CC2462FE51F9B002B40F394
:101EE0006C82DDE912329342A8BF1346002B1D46D7
:101EF0000EDD269B119ACAF8002001332C44072BD3
:101F00002794CAF80450269300F326830AF1080A9E
:101F1000129B002DA8BF5B1B002B1D4600F38B817D
:101F20001F9B139A9342C0F2F181079AD10700F1E7
:101F3000ED81139A1298D31A151A9D42A8BF1D4617
:101F4000002D0FDD269A1199CAF804500132014480
:101F50002C44072ACAF80010CDE9262400F3428356
:101F60000AF1080A002DACBF5D1B1D46002D7FF74E
:101F7000F8AC102D269ADFF8689640F308822346C5
:101F800010264C460D9FDDF8309005E00AF1080A56
:101F9000103D102D40F3F98101321033072ACDE9AD
:101FA0002623CAE90046F1DD25AA4946384602F053
:101FB000B7FA00287FF4E7AADDE92623C246E7E75F
:101FC000099B0E93CDF84480FFF7E7BB002F7FF706
:101FD0002EAF102FDFF8089640F3FB8333462246DE
:101FE0004E464FF0100ADDE90D45DDF8309005E072
:101FF0000833103F102F40F3FB8101351032072DBD
:10200000CDE92652C3E9006AF2DD25AA49462046F9
:1020100002F086FA00287FF4B6AADDE9265243468C
:10202000E7E70F9B19F0100F53F8044B0F9378D08C
:1020300000250123FFF7C4BA0F9A52F8044B0F9200
:1020400019F010027CD00025FFF7BABA079AD20720
:102050003FF5B5AE01221199CAF80010072DCDE960
:102060002654CAF8042000F32081023309930AF1B0
:10207000100ADCE6302B00F04381119A023930233C
:1020800002F8013CA8EB01030E931191FFF785BB09
:10209000079BDD073FF5B9AD63E425AADDE90C1028
:1020A00002F03EFA00287FF46EAA279C8EE4CDF859
:1020B0004480FFF772BB0025A8E4E517002C75F1FA
:1020C0000003BFF63AAB099B64424FF02D0665EB67
:1020D000450501338DF877607FF435AB002D08BFDF
:1020E0000A2CCDF81C90FFF4B8AEC1462046294614
:1020F0000A22002303F01EFB303209F8012D20468E
:10210000294600230A2203F015FB04460D4654EA33
:102110000503EBD1A8EB0903CDF844900E93FFF72C
:102120003CBB19F0400F18BFA4B200250123FFF7F4
:1021300047BA0A9A1046D117C3E90001FFF77EB9E2
:1021400019F040031CBF1346A4B20025FFF738BAAC
:10215000159C22462046149C2346214603F0ACFAE7
:10216000002840F02283099A27F02003541C08938A
:1021700000F01A82472B00F06F8149F480730793B7
:10218000DDE914361D1EB6BF03F1004500232D23E3
:10219000662F109300F00B82462F00F06282089B9E
:1021A000452B32462B4600F05D8123A820A9099CCF
:1021B000049003911FA802210290019400910D98B0
:1021C00000F0F6FB672F119040F0308319F0010FFB
:1021D00000F06F81119B099A9C18169A179B304644
:1021E000294603F037FA002800F0D2812346119ADD
:1021F0009B1A13931F9B1293089B472B00F062813D
:10220000662F40F06681129B002B099B40F3D98218
:10221000002B40F0C08219F0010F40F0BC82129BED
:1022200008930E93109B002B40F07E8109939DF83C
:102230007760FFF73DBA102B269ADFF8A49340F39E
:10224000EF80234610264C460D9FDDF8309005E0C8
:102250000AF1080A103D102D40F3E08001321033DE
:10226000072ACDE92623CAE90046F1DD25AA494619
:10227000384602F055F900287FF485A9DDE92623C8
:10228000C246E7E764420B940F907CE440210D982E
:1022900001F096FA0C9B18601861002800F0CD82BE
:1022A0000C9A40235361FFF7B8B825AADDE90C105A
:1022B00002F036F900287FF466A9DDE926340133FF
:1022C00009930DF1D00A4646B1E525AADDE90C10C7
:1022D00002F026F900287FF456A9279CC246A4E400
:1022E000099B119E0996062B28BF062308930E937F
:1022F000B94B0F95CDF81C9012961193FFF7D8B9F2
:10230000119BA8EB03030E93FFF747BA269A1A997D
:10231000CAF800101999CAF8041001320C44072AAF
:102320002794269200F328810AF1080A01E60A9A06
:102330001A60FFF783B825AADDE90C1002F0F0F867
:1023400000287FF420A99DF87760279CC246FFF7FC
:102350008CBA25AADDE90C1002F0E2F800287FF41F
:1023600012A9DDE92654464634E525AADDE90C101C
:1023700002F0D6F800287FF406A9DDE92654464687
:1023800034E5012B7FF4EBA967E5A1461C46013239
:102390002C44072ACDE92624CAE900957FF7DFAA55
:1023A000F7E425AADDE90C1002F0BAF800287FF462
:1023B000EAA8279CC246FFF77CBA269A8749CAF842
:1023C0000010013201340121072ACDE92624CAF880
:1023D00004103FF7B0AC0AF1080AB7E425AADDE91A
:1023E0000C1002F09DF800287FF4CDA8C24606E448
:1023F000B1461E466B1C1446099306F10802099B60
:1024000026933C44072B2794C6E900973FF74DAF2E
:102410000133099302F1080A164608E5A1461C4655
:1024200001322C44072ACDE92624CAE9009500F39D
:102430002A810AF1080A73E511980994FEF720FF32
:10244000CDF81C90CDE90E050346FFF72BB9079A8E
:10245000D0077FF586AA7EE4002A134608BF012331
:1024600009938AE6099901310C460E9123A820A907
:10247000049003911FA802210290019400910D98ED
:1024800000F096FA1190472F40F0C88119F0010F23
:1024900000F0BD81119B0E9A462F03EB02047FF4DE
:1024A0009CAE119B1B78302B00F05C811F9B1C4461
:1024B00093E61F9A239B1292119A9B1A1393089BDF
:1024C000472B06D1129BDA1C02DB099A9A4232DAB8
:1024D000023F129B8DF88470013B002B1F93BDBF00
:1024E000129BC3F101032D222B22092B8DF885208D
:1024F00000F30581303330228DF887308DF8862047
:1025000022AB21AA9B1A139A1B93012A13440E9300
:1025100040F337810E9B199A13440E9323EAE37319
:102520000893002312937DE62D2600238DF8776013
:102530000993FFF7C0B8DDE912318B427EDB19F059
:10254000010F00F00981129B199A13440E9323EA9C
:10255000E3730893672765E625AADDE90C1001F00F
:10256000DFFF00287FF40FA8279CC246D0E42D2669
:102570008DF87760FFF7C3BA25AADDE90C1001F0EA
:10258000CFFF00287EF4FFAF1F9B279CC246D0E4FC
:10259000239BA342BFF42BAE30215A1C2392197007
:1025A000239B9C42F9D822E606230993E5E523A85C
:1025B00020A9099C049003911FA803212B46019494
:1025C0000290324600910D9800F0F2F923461190E6
:1025D00004190E9365E700BF785C0008805C000872
:1025E000945C000825AADDE90C1001F099FF002891
:1025F0007EF4C9AF1F9B139A279CD31AC246B1E43D
:1026000000230993FEF750BF099B08930E9309908E
:102610000F95CDF81C9012909DF87760FFF748B8A1
:1026200025AADDE90C1001F07BFF00287EF4ABAF9A
:102630001F9BDDE92624C246FFF79DBB199A139B19
:102640001344129A0E93002A06DC129B0E9AC3F1D1
:1026500001031A4413460E9223EAE3730893672793
:10266000E0E523A820A9099C049003911FA8032159
:10267000029032462B46019400910D9800F098F993
:102680000E94119006E725AADDE90C1001F048FF31
:1026900000287EF478AF279CC24641E45D421033A7
:1026A000DFF8E4911FDA234610260D9F4C4604E024
:1026B0000AF1080A103D102D13DD01321033072AEC
:1026C000CDE92623CAE90046F2DD25AA0C99384651
:1026D00001F026FF00287EF456AFDDE92623C2462E
:1026E000E8E7A1461C4601322C44072ACDE92624FE
:1026F000CAE900957EDC0AF1080AFFF73FBB0DF13D
:10270000930420465D4D00E01046A5FB0312D2085D
:1027100002EB8201A3EB410303F130011346092BC5
:1027200000F8011C00F1FF32EEDC30330238D9B280
:10273000844202F8011C76D90DF18600134601E0AF
:1027400013F8011B00F8011B9C42F9D125AB9B1A21
:102750000DF186021344D4E623EAE37208920E9345
:1027600067275FE5169A179B3046294602F072FFED
:1027700000287FF49BAE0E9BC3F101031F931C4402
:102780002BE519F0010312937FF4C4AE0E9B23EAEC
:10279000E373089346E5129B199A1344099A1A4465
:1027A00022EAE2730E9208933CE5149B344A002B14
:1027B000B6BF2D269DF877608DF87760314BFFF717
:1027C000A0B943B919F0010F05D1012308930E9365
:1027D00028E5524613E6199B0133DFE70F9D9BF86E
:1027E00001302C68834644EAE474281D09940F9054
:1027F000FEF757BE25AADDE90C1001F091FE002876
:102800007EF4C1AEDDE92624C246FFF7B7BA1F9AAF
:10281000239B1292119A9B1A139353E60E9B119AC3
:1028200013441C46D9E40DF186036AE6099B0E9316
:1028300029E68DF87710FFF71BB90D9A0C2313606A
:102840004FF0FF330A93FEF7A7BE8DF87710FEF71F
:1028500062BF8DF87710FFF7CBB88DF87710FFF7D0
:1028600023B98DF87710FFF75DB98DF87710FFF772
:1028700097B98DF87710FEF725BF00BFCDCCCCCC33
:102880004C5C0008485C0008945C00082DE9F04F9F
:1028900003690F69BB4283B0C0F28680013F01F13A
:1028A000140900F1140A59F827205AF82730BC00FF
:1028B0000132B3FBF2F80AEB0403009409EB040BBA
:1028C0000193B8F1000F38D000252E46CE46D446ED
:1028D0005EF8044BDCF80030A2B208FB0255220C73
:1028E0002C0C08FB0242ADB2751B96B2C6EB134628
:1028F00015FA83F306EB23469BB243EA0643F345FE
:102900004FEA12454CF8043B4FEA2646E0D2009BC2
:102910005AF803308BB9019A131F9A450CD252F81A
:10292000043C4BB9A2F1080302E01A68043B1AB94F
:102930009A4507F1FF37F8D30761044601F0F4FC2C
:1029400000282DDB08F101085546002359F8041B27
:1029500028688AB29A1A0B0C12FA80F2C3EB104361
:1029600003EB224392B242EA0342CB4545F8042BE3
:102970004FEA2343EAD25AF827200AEB87037AB9B1
:102980001A1F92450BD253F8042C42B9083B02E0BF
:102990001A68043B1AB99A4507F1FF37F8D3276143
:1029A000404603B0BDE8F08F002003B0BDE8F08FD3
:1029B0002DE9F04F016C97B014461D468346CDE9D2
:1029C000024549B1426C4A60012393408B6001F09B
:1029D000BBFA0023CBF840302E1E239AB4BF01234C
:1029E00000231360784BBCBF26F000460396B34328
:1029F00000F0A880DDE90289002240464946002314
:102A000002F028FE054678B1229A01231360249B28
:102A1000002B00F0C4806D4B249A1360013B04939B
:102A2000049817B0BDE8F08F14AA15ABCDE90032B9
:102A3000584642464B4601F009FD340D824640F0AF
:102A4000A380DDE914542C4404F23243202B40F3DC
:102A50001784C3F140039E40029B04F2124023FA04
:102A600000F0304302F014FB01238046013CA1F149
:102A7000F87912930022564B4046494602F0CAF9B3
:102A80004BA3D3E9002302F07DFB4BA3D3E9002342
:102A900002F0C2F9064620460F4602F009FB48A3A1
:102AA000D3E9002302F06EFB02460B46304639465E
:102AB00002F0B2F906460F4602F014FE002205901D
:102AC00000233046394602F0CFFD002840F06E82E8
:102AD000059E162E00F25F823E4B03EBC603D3E940
:102AE0000001DDE9022302F0DDFD002800F0C483CF
:102AF000731E059300230A932C1B059BB4F1010858
:102B000046BFC4F101094FF000084FF00009002B47
:102B1000C0F244829844099300230893209B092B18
:102B200060D8052B40F3AA83043B20930025209B0B
:102B3000023B032B00F28D84DFE813F0C903A903E5
:102B4000D303EA04229A42F20F731360029B7BB90B
:102B5000C6F3130666B9249B002B00F012861E4BA9
:102B600004930833249A0498136017B0BDE8F08FDB
:102B7000249B2BB9194B0493049817B0BDE8F08F30
:102B8000164B04930333EDE7C9F3130343F07F5966
:102B90001295A4F2FF3449F44019149D6AE7104BD2
:102BA0000493049817B0BDE8F08F00BFAFF3008026
:102BB00061436F63A787D23FB3C8608B288AC63F43
:102BC000FB799F501344D33F0000F07F815C0008E5
:102BD0000000F83FE05C0008A45C0008B05C00085E
:102BE000805C00084FF0FF340125CDE90645002345
:102BF000209321930021CBF844100B94584601F008
:102C00007DF90E2C0490CBF8400000F2F980002DE5
:102C100000F0F680DDE9023405991D4626460029BC
:102C2000CDE90C5640F3D3839A4B01F00F0203EB2E
:102C3000C203D3E900230C11CDE90223E30640F1DE
:102C40008884954B31462846D3E9082302F0C4FB1B
:102C5000CDE90E0104F00F0403267CB1DDE9020189
:102C60008D4DE70704D5D5E90023013602F08AFA35
:102C7000641005F10805F4D1CDE90201DDE9022374
:102C8000DDE90E0102F0A8FBCDE902010A9B43B188
:102C90000022824BDDE9020102F0E6FC002840F050
:102CA000EB84304602F004FADDE9022302F06AFA0E
:102CB0007B4B002202F0B0F8069B0646A1F150774C
:102CC000002B00F00A84059B1393069B0E93DDE90D
:102CD000020102F007FD0E9A6E4B03EBC20353E9AB
:102CE000023400F13005CDE9103402F0E1F902467A
:102CF0000B46DDE90201CDE9026702F08BF8049B87
:102D0000064607985C1CEDB20F46DDE9102300284B
:102D100000F045840020634902F05EFBDDE90223F8
:102D200002F078F8049A3B4615703246CDE902016C
:102D300002F0B8FC002840F0EF8432463B46002009
:102D4000564902F067F802460B46DDE9020102F03F
:102D5000A9FC002840F0E5840E9901294CD0049A82
:102D6000CDF838901144CDF84080DDE90289CDF8E6
:102D700008A08A460CE00020484902F04BF8424681
:102D80004B4602F071FC002840F0C98454452DD018
:102D9000404649460022444B02F0F4F90022424BDF
:102DA000804689463046394602F0ECF90F46064621
:102DB00002F098FC054602F07BF902460B463046CD
:102DC000394602F027F83035EDB242464B4604F85A
:102DD000015B06460F4602F047FC32463B460028A0
:102DE000C9D0139BDDF808A0059319E2DDF83890EF
:102DF000DDF84080DDF808A0DDE90C34CDE90234CF
:102E0000159B002BC0F2AD80059A0E2A00F3A98015
:102E1000204B03EBC203D3E90089219B002BC0F2B6
:102E2000B382DDE9026742464B463046394602F03E
:102E3000D3FA02F057FC054602F03AF942464B46F7
:102E400002F0A0F902460B463046394601F0E2FF97
:102E5000049A05F130031370069B012B06460F46BA
:102E600002F1010453D000220F4B02F08BF9002233
:102E7000002306460F4602F0EDFB002840F0D0810B
:102E8000CDF808A0DDF818A0CDF818B0DDF810B026
:102E900017E000BFE05C0008B85C00080000F03FED
:102EA00000001C400000E03F0000244002F06AF9EE
:102EB0000022002306460F4602F0CCFB002840F01B
:102EC000318342464B463046394602F085FA02F0DD
:102ED00009FC054602F0ECF842464B4602F052F976
:102EE00002460B463046394601F094FF05F1300C9E
:102EF00004F801CBA4EB0B0CE24506460F464FF05D
:102F00000002B84BD2D1DDF808A0DDF818B0324687
:102F10003B463046394601F07FFF42464B46064667
:102F20000F4602F0BFFB58B942464B463046394681
:102F300002F090FB002800F07381EB0740F17081F4
:102F400014F8015C049A05E09A4200F01E8313F81D
:102F5000015C1C46392D04F1FF33F5D001351D709D
:102F60005EE1079A92B3209A012A40F30282069BFF
:102F70005F1E089BBB42C0F2DA82DF1B069B002B60
:102F8000C0F2F9824C46984499440121584601F018
:102F900075F805461DE001230A93ADE5059BA9EBF5
:102FA00003095B42089300230993B7E5DDF8148019
:102FB000404602F07DF832463B4602F04BFB0028CB
:102FC0007FF486AD08F1FF33059381E5089F079DE7
:102FD0004C46002C0BDDB8F1000F08DD44452346BC
:102FE000A8BF4346A9EB0309E41AA8EB0308089B12
:102FF0006BB1079A002A00F08E82DE1B002F40F092
:103000008E8151463246584601F0E8F88246012149
:10301000584601F033F8099A0646002A40F0188114
:10302000209B012B40F360810120404410F01F00E1
:1030300000F00981C0F12003042B40F3A683C0F106
:103040001C00814404448044B9F1000F05DD514661
:103050004A46584601F012F98246B8F1000F05DDE4
:1030600031464246584601F009F906460A9B002BB4
:1030700073D1069B002B40F30982079B002B00F0C5
:103080008580002C00F36081099B002B40F0C881F3
:10309000A846029A049F02F001020992069A7B1E3A
:1030A0001A44079231465046FFF7F0FB2946814605
:1030B0000890504601F038F9314602904246584691
:1030C00001F04EF9C368044609F130090146002BAE
:1030D00040F0D781504601F027F921460690584626
:1030E00000F032FF069B33B9209A22B9099B002BCE
:1030F00000F01B83209B029A002AC0F2208205D197
:10310000209A1AB9099A002A00F01982002B07F1B7
:10311000010400F32582079B87F80090BB4200F072
:103120002E82514600230A22584600F017FF4545DB
:10313000824629464FF000034FF00A02584600F03D
:103140009A8100F00BFF4146054600230A225846AB
:1031500000F004FF27468046A4E73146504601F0C0
:10316000E3F8002885DA059F514600230A225846D5
:10317000013F059700F0F2FE079B8246002B40F0CE
:10318000E4820B9B002B40F3EC820693DDF8108069
:10319000069F444602E000F0E1FE8246314650467A
:1031A000FFF774FB00F1300904F8019BA4EB08035E
:1031B0009F424FF00A024FF0000351465846EADCA6
:1031C0000023029351460122584601F057F8314638
:1031D000824601F0A9F8002814F8012C40F3BB80C6
:1031E000049907E000002440994200F05C8113F844
:1031F000012C1C46392A04F1FF33F5D001321A7034
:103200003146584600F0A0FE55B1029921B1A942BD
:1032100002D0584600F098FE2946584600F094FE29
:103220005146584600F090FE0022059B2270229ADB
:1032300001331360249B002B3FF4F2AB04981C6015
:1032400017B0BDE8F08F1C20814404448044FBE6A5
:103250000146584600F0C2FF209B012B064640F372
:10326000F38000230993336906EB8303186900F0A8
:10327000B5FEC0F12000D8E60A903DE4012556E4F1
:10328000C3F12006029B03FA06F0FFF7EBBB002315
:103290000793059B219A13440B930133012B1E4680
:1032A0000693B8BF01260021172ECBF84410069CC8
:1032B0007FF7A4AC012204235B0003F11400B042A9
:1032C000114602F10102F7D9CBF8441096E400232D
:1032D0000793219B002B40F3ED800B9306931E4632
:1032E000E1E701230793F4E7029B002B7FF49CAEF8
:1032F000DDE90212C2F31303002B40F0998122F0A2
:1033000000431B0D1B0523B109F1010908F1010858
:103310000123099A0993002A3FF486AEA3E73A46AF
:103320002946584600F05AFF52460146054658467F
:1033300000F0AEFE51460746584600F005FEBA467C
:10334000002E3FF464AE5CE629462246584600F063
:1033500095FF054698E607D119F0010F7FF440AFBD
:1033600002E014F8022C1C46302A04F1FF33F8D096
:1033700046E7129A002A00F0538103F233434C4689
:1033800098449944089F00E6069B002B3FF749ADFF
:1033900040F0BB800022B24B4046494601F0F2FEAD
:1033A000DDE9022302F074F9069E3546002875D146
:1033B000059A01320592049A31231370541C314648
:1033C000584600F0C1FD002D7FF426AF28E700F03D
:1033D0003F81059B5C42A34B04F00F0203EBC20349
:1033E000D3E90023DDE90C0101F0CCFE2411CDE985
:1033F000020100F0BB819C4D00230226E20705D5A7
:10340000D5E9002301F0BEFE01360123641005F169
:103410000805F3D1002B3FF439ACCDE9020135E4C6
:103420006968584600F06AFD2B6902339A00044629
:1034300005F10C010C3000F0BBFC2146012258467E
:1034400000F01CFF804624E6029B002B3FF450AFA7
:1034500007E70024CBF844402146584600F04EFDD3
:103460004FF0FF330B930693012304902194CBF884
:1034700040000793C4E400F071FD274605468046EE
:1034800010E6584600F060FD012334E6209B022B35
:103490007FF7F3AD069B002B00F0CC80219B049CB2
:1034A000DB4305938BE7059A01320592049A312399
:1034B0001370A5E6012421940694FFF79BBB3046C8
:1034C00001F0F6FDDDE9022301F05CFE0022674B0E
:1034D00001F0A2FC0646A1F15077DDE902010022CD
:1034E0005F4B01F097FC32463B46CDE9020102F00A
:1034F000D9F8002846D1324607F10043DDE9020140
:1035000002F0B2F800283FF477AC00263546C5E754
:1035100001230793BDE65146089A584600F05EFE27
:10352000824674E5DDF808A0DDF818B078E6089B5F
:10353000099AFB1A1A44CDE9087200271EE5002BF0
:1035400007F1010400F3BC80029587F8009045461E
:1035500056E6DDE90C230226CDE90E23FFF77DBBFD
:10356000B9F1390F00F0BE8009F10109029587F821
:103570000090454644E6069BA9EB030405E5029549
:1035800045461FE60026354612E7049A302313709D
:10359000059B14F8015C013305931346DEE4DDE975
:1035A000020101F0EFFD049B1D700E9B012BCDE984
:1035B000020123D00E9B049ACDF838901344C146E3
:1035C000984600222A4B3046394601F0DBFD0F4673
:1035D000064602F087F8054601F06AFD30350246DE
:1035E0000B463046394601F015FC04F8015B4445B2
:1035F00006460F46E5D1C846DDF838901D4B00223F
:10360000DDE9020101F008FC32463B4602F02CF8ED
:1036100000286DD0139B059314F8015C049A99E47B
:10362000149B089FC3F136034C4698449944ACE47C
:1036300000236EE631460522584600F08FFC014615
:103640000646504600F070FE00283FF7B1AE25E771
:10365000DDE90C340226CDE90234FFF717BB00BFC9
:1036600000001440E05C0008B85C000800001C404A
:10367000000024400000E03F069B002B3FF41FAFFA
:103680000B9C002C7FF7B8AB0022424BDDE9020116
:1036900001F078FDCDE90201701C01F009FDDDE9C2
:1036A000022301F06FFD3C4B002201F0B5FB059BAE
:1036B0000E94013B0646A1F150771393FFF707BB29
:1036C00051460122584600F0D9FD3146824600F0AD
:1036D0002BFE002832DDB9F1390F03D0089B03F12E
:1036E000310931E7392202953A704546049981E55E
:1036F000DDE902230020294901F08CFB32463B46DC
:1037000001F0D0FF10B9FFF777BB144614F8013C65
:10371000302B04F1FF32F8D0139B059380E5DDF8E0
:1037200008A0139B0593049A14E4B9F1390F07F12B
:103730000104D7D0029B002BD0DC05E77FF404AF57
:1037400019F0010F3FF400AFC5E7294600230A2214
:10375000584600F003FC0B9B002B054609DD069341
:103760008FE4209B022B09DC0B9B0EE50226FFF762
:103770008DBA209B022B01DC0B9BF0E70B9B069381
:1037800088E6074B0493FFF74BB93FF45DACC0F1FB
:103790003C0059E50000244000001C400000E03FD0
:1037A000A45C0008044A054B1268506B002808BF4F
:1037B0001846F030704700BF10000020500800206D
:1037C0002DE9F04F01F10B05162D83B0064623D8E5
:1037D000102900F2B98000F085FB10251823022083
:1037E000C54F3B44A3F108025C68944200F0668137
:1037F000636823F003032344D4E902515A68E96063
:1038000042F001028D6030465A6000F071FB0834CE
:10381000204603B0BDE8F08F35F0070500F1948035
:10382000A94200F2918000F05DFBB5F5FC7FC0F08D
:1038300083816B0A00F08F80042B00F24681AB0974
:1038400003F1390003F1380CC300AB4F3B44A3F143
:1038500008015C68A14206D10CE0002A80F21D81BB
:10386000E468A14206D0636823F003035A1B0F2AC1
:10387000F3DD60463C69DFF894C2644571D063684B
:1038800023F003035A1B0F2A00F34481002AC7E9DF
:1038900004CC80F22681B3F5007F80F06981DB08DB
:1038A000591C7A6857F83180C4F808804FF0010E2F
:1038B0009B100EFA03F307EBC10E1343AEF108029F
:1038C000E2607B6047F83140C8F80C408210012468
:1038D00094409C424BD81C4206D120F00300640067
:1038E0001C4200F10400FAD007EBC009CE46804626
:1038F000DEF80C309E4507D122E1002A80F22981B2
:10390000DB689E4500F01C81596821F003014A1BC9
:103910000F2AF2DDD3E9028E5C1945F001055D60E6
:1039200042F00105C8F80CE03046CEF80880C7E93F
:103930000444C4E902CC65605A50019300F0D8FAFF
:10394000019B03F1080463E700240C232046336045
:1039500003B0BDE8F08F4FF4007340204FF03F0CF0
:1039600073E77B688210012494409C42B3D9BC6801
:10397000636823F00309A94503D3A9EB05030F2BC3
:103980007BDC5E4BDFF888A11A68DAF8003001337F
:1039900005EB020800F0488108F5805808F10F088F
:1039A00028F47F6828F00F084146304600F0A6FD55
:1039B000B0F1FF3F834600F0048104EB0900584555
:1039C00000F2FD804E4A13684344136000F04D81BD
:1039D000DAF8001001311BBFABEB00001B18CAF86E
:1039E00000B013601BF0070300F03481C3F108013D
:1039F000C3F580538B440833D844C8F30B08A3EBBA
:103A0000080841463046019200F078FD431C019AB7
:103A100000F04681A0EB0B01414441F00101136825
:103A2000C7F808B04344BC42CBF80410136015D06B
:103A3000B9F10F0F40F230816068A9F10C0121F05B
:103A4000070100F0010004EB010C08434FF0050EE4
:103A50000F296060CCE901EE00F23A81294A2A4838
:103A60001168BC688B42016888BF136062688B4232
:103A700022F0030288BF0360A7E0621943F001034C
:103A800045F0010565603046BA60536000F030FAD9
:103A90000834204603B0BDE8F08F2344E1685A683B
:103AA000A56842F00102E96030468D605A6000F07E
:103AB0001FFA0834204603B0BDE8F08FDC68A3424B
:103AC00008BF02303FF4D6AE92E6142B71D9542BC6
:103AD00000F2AD802B0B03F16F0003F16E0CC300FD
:103AE000B3E6234430465A6842F001025A60083473
:103AF00000F0FEF98CE600BF40040020800A0020A0
:103B0000500A0020780A00207C0A00204804002087
:103B100048080020611945F0010E42F00105C4F883
:103B200004E03046C7E90411C1E902CC4D60E2501F
:103B300000F0DEF908346BE6E80805F108034FE60B
:103B400008F1010818F0030F0EF1080E7FF4D0AE53
:103B500052E019441C464A68DB6854F8085F42F09A
:103B600001024A603046EB609D6000F0C1F94FE60B
:103B70005A0A042A35D9142A6FD802F15C01C90007
:103B80005B3207EB010E7958AEF1080E8E4558D026
:103B90004A6822F003029A4202D989688E45F7D119
:103BA000D1F80CE07B68C4E9021ECEF80840CC6076
:103BB0008CE603F15C0003F15B0CC30045E6BC42FC
:103BC00072D0BC68626822F003029542A2EB050342
:103BD00002D80F2B3FF751AF304600F089F900248F
:103BE00016E69A0902F13901C9003832C9E7D9F855
:103BF0000090994540F0838010F0030FA9F108036D
:103C000000F1FF30F3D17B6823EA04037B6064009A
:103C10009C423FF6ACAE1CB9A9E6640008F104086A
:103C20001C42FAD040465FE608F11008BCE6B3F546
:103C3000AA7F26D8EB0B03F1780003F1770CC300C1
:103C400003E67B6892104FF0010808FA02F2134372
:103C50007B60A8E74FF48053CEE6542A29D81A0B8C
:103C600002F16F01C9006E328BE7C0F30B0100292E
:103C70007FF4AEAE09EB0802B96842F001024A6077
:103C8000ECE640F2545293421CD8AB0C03F17D0099
:103C900003F17C0CC300D8E50123CBF804309BE78B
:103CA00001214FF00008BAE6164A13684344136036
:103CB0008EE6B2F5AA7F14D8DA0B02F17801C900BA
:103CC00077325EE74FF47E737F204FF07E0CBCE5C9
:103CD00004F108013046019200F020FD019A1368BA
:103CE000BCE640F254518A4205D89A0C02F17D019B
:103CF000C9007C3245E74FF47E717E2241E77B6844
:103D000085E700BF500A002000000000000000000E
:103D100001F0FF01102A2BDB10F0070F08D010F87C
:103D2000013B013A8B422DD010F0070F42B3F6D180
:103D3000F0B441EA012141EA014122F007047FF099
:103D400000070023F0E80256083C85EA010586EAF0
:103D5000010685FA47F5A3FA87F586FA47F6A5FA2C
:103D600087F68EB9EED1F0BC01F0FF0102F0070238
:103D700032B110F8013B013A83EA010313B1F8D1E3
:103D80000020704701387047002D06BF35460338C4
:103D9000073815F0010F07D1013015F4807F02BFFD
:103DA000013015F4C03F0130F0BC0138704700BF4E
:103DB000844641EA000313F003036DD1403A41D336
:103DC00051F8043B40F8043B51F8043B40F8043BF5
:103DD00051F8043B40F8043B51F8043B40F8043BE5
:103DE00051F8043B40F8043B51F8043B40F8043BD5
:103DF00051F8043B40F8043B51F8043B40F8043BC5
:103E000051F8043B40F8043B51F8043B40F8043BB4
:103E100051F8043B40F8043B51F8043B40F8043BA4
:103E200051F8043B40F8043B51F8043B40F8043B94
:103E300051F8043B40F8043B51F8043B40F8043B84
:103E4000403ABDD2303211D351F8043B40F8043B24
:103E500051F8043B40F8043B51F8043B40F8043B64
:103E600051F8043B40F8043B103AEDD20C3205D334
:103E700051F8043B40F8043B043AF9D2043208D02C
:103E8000D2071CBF11F8013B00F8013B01D30B889E
:103E900003806046704700BF082A13D38B078DD07C
:103EA00010F003038AD0C3F10403D21ADB071CBF4E
:103EB00011F8013B00F8013B80D331F8023B20F8B8
:103EC000023B7BE7043AD9D3013A11F8013B00F8F1
:103ED000013BF9D20B7803704B7843708B78837079
:103EE00060467047014800F00DBD00BF9C0A0020ED
:103EF000014800F009BD00BF9C0A0020C36C70B5EA
:103F000005460C464BB153F8240080B1026843F8D3
:103F100024200023C0E9033370BD2122042100F0D6
:103F200079FB0346E8640028EDD1002070BD012133
:103F300001FA04F6721D2846920000F06BFB00287F
:103F4000F3D0C0E90146E4E731B1C36C4A6853F8E5
:103F50002200086043F82210704700BFF0B50C69DA
:103F600083B00D46064601F1140C0027DCF8000072
:103F700081B202FB0133010C180C02FB01019BB260
:103F8000013703EB0143BC424CF8043B4FEA1143B9
:103F9000ECDC3BB1AA68A24207DD05EB84020134E8
:103FA00053612C61284603B0F0BD6968019301316B
:103FB0003046FFF7A3FF2A69023205F10C010746DC
:103FC00092000C30FFF7F4FEF26C6968019B52F826
:103FD0002100286042F821503D46DEE7020C120421
:103FE0000346C2B90304102013F07F4F04BF1B0225
:103FF000083013F0704F04BF1B01043013F0404F22
:1040000004BF9B000230002B04DB5B0001D50130B4
:104010007047202070470020E6E700BF036813F0D8
:104020000702014607D0DA071FD498071FD55B089F
:104030000B600120704798B2A0B1104613F0FF0F3B
:1040400004BF1B0A08301A0704BF1B0904309A0773
:1040500004BF9B080230DA0702D45B080BD00130A2
:104060000B6070471B0C1020E8E7002070479B088E
:104070000B60022070472020704700BF10B50C462F
:104080000121FFF73BFF0122C0E9042410BD00BF5E
:104090002DE9F04F0E691469A64283B00F4615460C
:1040A00004DA32462F4626460D461446D7E9011358
:1040B00006EB04084345B8BF0131FFF71FFF00F1CD
:1040C000140909EB880EF145009005D24B460022F9
:1040D00043F8042B9E45FBD805F1140A0AEB84042F
:1040E00007F11403A24503EB860C61D2641B153C57
:1040F00024F00304CDF804E0A24405F110029E462A
:1041000005E02D0C2BD1924509F104094ED052F84F
:10411000045F1FFA85FBBBF1000FF2D077464E46D5
:10412000002000E0264657F8041B34688BB2A5B285
:10413000090C240C0BFB035303440BFB014000EB65
:10414000134034469BB243EA0043BC454FEA10405B
:1041500044F8043BE6D8706015682D0CD3D0D9F82C
:10416000003076461846CB46002100E0A34634884E
:10417000000C05FB040001449BB25C4643EA01438A
:1041800044F8043B56F8043BDBF804001B0C87B2F0
:1041900005FB037303EB1143B4454FEA1341E5D824
:1041A0009245CBF8043009F10409B0D1DDF804E000
:1041B000B8F1000F0BDD5EF8043CAEF1040E1BB14C
:1041C00005E05EF8043D13B9B8F10108F9D1009893
:1041D000C0F8108003B0BDE8F08F00BF12F00303F9
:1041E0002DE9F041144607462ED10D46A4101CD0EF
:1041F000BE6C96B3E3074FF0000806D4641014D0E9
:104200003068A8B10646E307F8D532462946384655
:10421000FFF73EFFB5B16A68FB6C641053F82210DB
:10422000296043F822500546EAD12846BDE8F081CE
:10423000324631463846FFF72BFF3060C0F8008029
:104240000646E0E70546D9E7013B0B4A52F8232032
:104250000023FFF783FE0546C8E701213846FFF734
:104260004DFE40F2712343610122002302610646A4
:10427000B8640360BEE700BFA85D00082DE9F04701
:1042800091460A690E464FEA6914D1E9011304EB1D
:10429000020808F101059D42074604DD5B009D42CE
:1042A00001F10101FADC3846FFF728FE002C00F18D
:1042B000140337DD03EB8401002243F8042B8B4207
:1042C000FBD1346906F1140319F01F0903EB840CC8
:1042D00020D0C9F1200E002200E051461C688A4619
:1042E00004FA09F414434AF8044B53F8042B6345C9
:1042F00022FA0EF2F1D34A600AB108F10205FB6C12
:104300007268013D53F822100561316043F8226064
:10431000BDE8F087043953F8042B41F8042F9C457D
:10432000F9D8ECE71946CCE730B40B6905460069CB
:10433000C01A0FD19B001435143119442B4401E0ED
:104340009D4207D253F8044D51F8042D9442F7D002
:1043500002D3012030BC70474FF0FF30FAE700BFB6
:104360002DE9F04113690D69ED1A002D0E469046B6
:1043700001F1140402F1140714D19B00E2183B442C
:1043800001E0A24259D952F804CD53F8041D8C45DE
:10439000F7D009D2224633463C4646461746984651
:1043A000012501E0F6DB00257168FFF7A7FDD8F8CD
:1043B00010303669C56007EB830EBC4600F114056A
:1043C00004EB860700235CF8041B54F8048B8AB2C4
:1043D00013FA88F3090C9A1AC1EB184303EB224332
:1043E00092B242EA0342E64545F8042B4FEA2343E2
:1043F000E9D8A74217D9AE46A4465CF8042B13FAB5
:1044000082F3191401EB12419BB243EA0142674562
:104410004EF8042B4FEA2143EFD8E443274427F01A
:10442000030704373D44043D22B955F8043D013EDD
:10443000002BFAD00661BDE8F0810021FFF75EFD98
:1044400001220023C0E90423BDE8F0812DE9F041F9
:10445000012182B01C469046DDE90865FFF74EFD5C
:104460002346C4F30A540746C3F313030CB143F4C1
:104470008013B8F1000201931FD002A840F8082D64
:10448000FFF7CCFD00282DD1DDE900237A61002B58
:104490000CBF01210221BB613961C4B907EB810363
:1044A000A0F2324030601869FFF798FDC0EB411070
:1044B0002860384602B0BDE8F08101A8FFF7AEFDE4
:1044C000019B7B61012120303961002CE6D0A4F2F0
:1044D00033430344C0F1350033602860384602B0EE
:1044E000BDE8F081DDE90013C0F1200203FA02F219
:1044F0000A43C34001937A61C9E700BF38B5074C4E
:104500000023054608462360FCF70EFC431C00D040
:1045100038BD2368002BFBD02B6038BD880A0020F3
:104520002DE9F04F936883B09046002B6CD017684C
:104530008D6882460C460868083742E0A38913F468
:10454000906F2DD0D4E9041505EB4505A0EB010BC8
:1045500005EBD575701C6D105844A8422A4684BFDF
:1045600005462A465B0536D511465046FFF728F921
:1045700000283AD05A4621690190FFF719FCA28918
:10458000019B22F4906242F08002A281A5EB0B0213
:1045900003EB0B00656123612060A2603546B346E2
:1045A0005A46494600F0C8F9D8F80830A268206891
:1045B000551B58449E1BA5602060C8F808601EB3B8
:1045C000083757E90296AB46002EF9D0AE42B5D275
:1045D0003546B346E4E7504600F05CFA034600284F
:1045E000D4D12169504600F099F80C23CAF8003064
:1045F000A389002243F040034FF0FF30A381C8E9B4
:10460000012203B0BDE8F08F0020C8F8040003B019
:10461000BDE8F08F10B502FB01F1FFF7D1F80446B9
:10462000D8B150F8042C22F00302043A242A1DD8F1
:10463000132A14D900231B2AC0E900331BD9242ACA
:10464000C0E902330ABFC0E9043300F1100200F1EF
:1046500018020023C2E900339360204610BD0246D1
:104660000023C2E900339360204610BD002100F012
:10467000C7F9204610BD00F10802F1E7F8B5244F54
:104680000C460646FFF72EFCBB685D68C4F57E61EC
:104690000F3125F00305294421F47F6121F00F013A
:1046A000A1F58054B4F5805F07DB00213046FFF7A9
:1046B00025FFBB682B44984204D03046FFF718FC16
:1046C0000020F8BD61423046FFF718FF01300DD0E1
:1046D000104BBA6819682D1B45F001053046091BBF
:1046E00055601960FFF704FC0120F8BD0021304639
:1046F000FFF704FFBA68831A0F2BDEDD064C05496D
:10470000246843F00103001B53600860D5E700BF35
:1047100040040020500A002048080020002953D0FF
:10472000F8B50C460646FFF7DDFB54F804CC714F94
:104730002CF00101A4F108056B18B8685A6898427A
:1047400022F0030253D01CF0010F5A6003EB020069
:104750003BD154F808CC4068A5EB0C0507F1080ED6
:10476000AC687445614400F0010075D0D5F80CC008
:10477000C4F80CC0CCF8084060B341F001036B6092
:104780006950B1F5007F50D34B0A042B70D88B09C8
:1047900003F13904E40003F1380238193B590838B1
:1047A000984278D05A6822F003028A4271D99B68F5
:1047B0009842F7D1C368C5E902039D60C5603046E1
:1047C000BDE8F840FFF794BB7047406800F0010077
:1047D0000028D2D19868484C1144A04241F001020F
:1047E00062D0DB68C36098606A606950C9E71CF0FA
:1047F000010F0A4407D154F8083CED1A1A44D5E9D0
:104800000213CB6099603D4B1B6842F0010193425B
:104810006960BD6004D83A4B30461968FFF72EFF37
:104820003046BDE8F840FFF763BBC90878684A1C0A
:10483000012389108B40034307EBC20157F8320074
:104840007B600839C5E9020147F83250C56030463F
:10485000BDE8F840FFF74CBB002845D10A44D3E936
:10486000021342F00100CB6099606860AA50D7E75C
:10487000142B08D9542B1ED80B0B03F16F04E40042
:1048800003F16E0289E703F15C04E40003F15B02CB
:1048900083E718468EE793107968012202FA03F342
:1048A0000B437B60034686E7C7E90455C5E9020070
:1048B0006A606950B4E7B3F5AA7F06D8CB0B03F161
:1048C0007804E40003F1770267E740F25452934220
:1048D00006D88B0C03F17D04E40003F17C025CE755
:1048E0004FF47E747E2258E741F001026A6019603D
:1048F00096E700BF40040020480400204C08002038
:10490000800A0020704700BF704700BF82B049B1E5
:104910005AB16BB113780B601278101C18BF0120CC
:1049200002B0704701A9002AF3D1104602B07047C7
:104930006FF00100F4E700BF8842F0B40DD98B1886
:1049400083420AD9841832B1224613F8014D02F885
:10495000014D9942F9D1F0BC70470F2A49D940EA7C
:1049600001039B0747D1A2F110031B0901F12007A6
:1049700007EB031701F1100400F1100554F8106C57
:1049800045F8106C54F80C6C45F80C6C54F8086C35
:1049900045F8086C54F8046C45F8046C1034BC42BB
:1049A00005F11005EAD1013302F00F051B01032DBB
:1049B0001944034421D91F1F0E462C46043C56F8C7
:1049C00004CB47F804CF032CF8D82C1F24F00304A1
:1049D00004342344214402F00302002ABBD0013BEB
:1049E0000A4411F8014B03F8014F9142F9D1F0BC90
:1049F00070470346F1E70346F1E72A46EDE700BFBB
:104A0000F0B4860743D0541E002A3ED0CAB20346F3
:104A100002E014F1FF3438D303F8012B9D07F8D1DD
:104A2000032C2BD9CDB245EA05250F2C45EA0545C7
:104A300016D9A4F110073F0903F1200606EB07166B
:104A400003F1100242E9045542E902551032B24224
:104A5000F8D104F00F040137032C03EB07130DD931
:104A60001E462246043A032A46F8045BFAD8221F5F
:104A700022F003020432134404F003042CB1C9B23F
:104A80001C4403F8011B9C42FBD1F0BC7047144648
:104A90000346C5E72DE9F04F924683B0002900F0A8
:104AA000A1800D4680460AF10B04FFF71BFA55F86A
:104AB000042C162C22F00306A5F108073ED810247A
:104AC0002146A2453FD88E4207EB060974DAC74B50
:104AD0009868484500F0AA80D9F8040020F0010346
:104AE0004B445B68DB0740F18380D20734D55146E5
:104AF0004046FEF765FE8246E0B155F8043C23F0DF
:104B000001033B44A0F10802934200F0F980321FF8
:104B1000242A00F20781132A296800F2E68003465E
:104B20002A4619605168596092689A602946404641
:104B3000FFF7F4FD4046FFF7DBF94FE024F00704F0
:104B4000002C2146BDDA4FF0000A0C235046C8F86D
:104B5000003003B0BDE8F08F55F8083CA7EB030B1D
:104B6000DBF8042022F00302B3188B42BFDBDA46E5
:104B7000DBF80C105AF8080F321F242AC1600BEB27
:104B80000309886000F2C680132A296840F2C080B9
:104B9000CBF808106968CBF80C101B2AA96800F242
:104BA000D8800BF110020835116069685160A9685E
:104BB00091601E465F4655467B68321B0F2A03F004
:104BC000010322D833437B60D9F8043043F001035A
:104BD000C9F804304046FFF78BF9AA46504603B0A7
:104BE000BDE8F08F114603B0BDE8F04FFEF7E8BD19
:104BF00020F0030033188B4261DBD9E902121E4614
:104C0000CA6007EB03099160D6E73919234342F0E4
:104C100001027B604A60D9F8043043F00103083197
:104C2000C9F804304046FFF779FDD3E7406820F02B
:104C30000309B14404F11000814577DAD2073FF54A
:104C400056AF55F8082CA7EB020BDBF8042022F036
:104C500003029144484587DCDA46DBF80C105AF829
:104C6000080F321F242AC160886000F2A180132A35
:104C7000296840F29B80CBF808106968CBF80C10CB
:104C80001B2AA96800F29B800BF110020835116005
:104C900069685160A96891600BEB0401A9EB0402FB
:104CA00042F0010299604A60DBF8043003F001032E
:104CB0001C434046CBF80440FFF71AF98EE7D307B0
:104CC0003FF515AF55F8083CA7EB030BDBF80420C4
:104CD00022F00302104483198B42FFF645AFD9E955
:104CE0000212DA46CA60916042E701606B68436075
:104CF0001B2A3AD805F1080200F10803A96810E759
:104D000050F8043C23F003031E4407EB060953E765
:104D1000524649E7294650461E465F46FFF70CFEBD
:104D2000554649E72946FFF707FEFFE62744A9EB6A
:104D3000040949F001029F607A6055F8043C03F0D1
:104D400001031C43404645F8044CFFF7D1F8AA463E
:104D500044E7CBF81010E968CBF81410242A10D0DF
:104D600029690BF1180210351EE7AB688360EB6808
:104D7000C360242A10D005F1100200F11003296944
:104D8000CFE62A69CBF818206A69CBF81C20A969FC
:104D90000BF12002183507E72B6903616B6943614A
:104DA000A96905F1180200F11803BAE652466EE748
:104DB000294650460193FFF7BFFD019B6CE7CBF8F6
:104DC0001010E968CBF81410242A04D029690BF1DB
:104DD000180210355BE72A69CBF818206A69CBF80E
:104DE0001C20A9690BF12002183550E7400400206F
:104DF00021B1FF2A04D80A70012070470846704785
:104E00008A2303604FF0FF30704700BF81F00041FC
:104E100002E000BF83F0004330B54FEA41044FEA9F
:104E2000430594EA050F08BF90EA020F1FBF54EA3A
:104E3000000C55EA020C7FEA645C7FEA655C00F0D6
:104E4000E2804FEA5454D4EB5555B8BF6D420CDDA7
:104E50002C4480EA020281EA030382EA000083EA2A
:104E6000010180EA020281EA0303362D88BF30BDCA
:104E700011F0004F4FEA01314FF4801C4CEA113120
:104E800002D0404261EB410113F0004F4FEA03337F
:104E90004CEA133302D0524263EB430394EA050F0A
:104EA00000F0A780A4F10104D5F1200E0DDB02FA79
:104EB0000EFC22FA05F2801841F1000103FA0EF20D
:104EC000801843FA05F359410EE0A5F120050EF1D3
:104ED000200E012A03FA0EFC28BF4CF0020C43FA04
:104EE00005F3C01851EBE37101F0004507D54FF011
:104EF000000EDCF1000C7EEB00006EEB0101B1F561
:104F0000801F1BD3B1F5001F0CD349085FEA3000A6
:104F10004FEA3C0C04F101044FEA445212F5800FB1
:104F200080F09A80BCF1004F08BF5FEA500C50F14E
:104F3000000041EB045141EA050130BD5FEA4C0C31
:104F4000404141EB010111F4801FA4F10104E9D1BA
:104F500091F0000F04BF01460020B1FA81F308BFB1
:104F60002033A3F10B03B3F120020CDA0C3208DD7D
:104F700002F1140CC2F10C0201FA0CF021FA02F158
:104F80000CE002F11402D8BFC2F1200C01FA02F1C8
:104F900020FA0CFCDCBF41EA0C019040E41AA2BFED
:104FA00001EB0451294330BD6FEA04041F3C1CDAB5
:104FB0000C340EDC04F11404C4F1200220FA04F0D5
:104FC00001FA02F340EA030021FA04F345EA03017F
:104FD00030BDC4F10C04C4F1200220FA02F001FA41
:104FE00004F340EA0300294630BD21FA04F02946C3
:104FF00030BD94F0000F83F4801306BF81F480115C
:105000000134013D4EE77FEA645C18BF7FEA655CCE
:1050100029D094EA050F08BF90EA020F05D054EAA0
:10502000000C04BF1946104630BD91EA030F1EBFA5
:105030000021002030BD5FEA545C05D140004941A9
:1050400028BF41F0004130BD14F580043CBF01F59C
:10505000801130BD01F0004545F0FE4141F4700182
:105060004FF0000030BD7FEA645C1ABF194610465D
:105070007FEA655C1CBF0B46024650EA013406BF5E
:1050800052EA033591EA030F41F4002130BD00BF1D
:1050900090F0000F04BF0021704730B54FF48064DA
:1050A00004F132044FF000054FF0000150E700BF5B
:1050B00090F0000F04BF0021704730B54FF48064BA
:1050C00004F1320410F0004548BF40424FF00001A7
:1050D0003EE700BF42004FEAE2014FEA31014FEAEA
:1050E00002701FBF12F07F4393F07F4F81F0605139
:1050F000704732F07F4208BF704793F07F4F04BF84
:1051000041F40021704730B54FF4607401F0004560
:1051100021F000411CE700BF50EA010208BF7047C0
:1051200030B54FF000050AE050EA010208BF7047B1
:1051300030B511F0004502D5404261EB41014FF41A
:10514000806404F132045FEA915C3FF4D8AE4FF022
:1051500003025FEADC0C18BF03325FEADC0C18BF05
:10516000033202EBDC02C2F1200300FA03FC20FA56
:1051700002F001FA03FE40EA0E0021FA02F11444A3
:10518000BDE600BF70B54FF0FF0C4CF4E06C1CEABC
:1051900011541DBF1CEA135594EA0C0F95EA0C0F2D
:1051A00000F0DEF82C4481EA030621EA4C5123EAA0
:1051B0004C5350EA013518BF52EA033541F48011CF
:1051C00043F4801338D0A0FB02CE4FF00005E1FB82
:1051D00002E506F00042E0FB03E54FF00006E1FBCC
:1051E00003569CF0000F18BF4EF0010EA4F1FF040F
:1051F000B6F5007F64F5407404D25FEA4E0E6D414F
:1052000046EB060642EAC62141EA55514FEAC5205F
:1052100040EA5E504FEACE2EB4F1FD0C88BFBCF5DB
:10522000E06F1ED8BEF1004F08BF5FEA500E50F18C
:10523000000041EB045170BD06F0004646EA010152
:1052400040EA020081EA0301B4EB5C04C2BFD4EB84
:105250000C0541EA045170BD41F480114FF0000E7D
:10526000013C00F3AB8014F1360FDEBF002001F0EB
:10527000004170BDC4F10004203C35DA0C341BDC65
:1052800004F11404C4F1200500FA05F320FA04F037
:1052900001FA05F240EA020001F0004221F000416B
:1052A00010EBD37021FA04F642EB06015EEA430EDE
:1052B00008BF20EAD37070BDC4F10C04C4F120050E
:1052C00000FA04F320FA05F001FA04F240EA0200C1
:1052D00001F0004110EBD37041F100015EEA430E92
:1052E00008BF20EAD37070BDC4F1200500FA05F2B2
:1052F0004EEA020E20FA04F301FA05F243EA020331
:1053000021FA04F001F0004121FA04F220EA02003F
:1053100000EBD3705EEA430E08BF20EAD37070BD85
:1053200094F0000F0FD101F00046400041EB010165
:1053300011F4801F08BF013CF7D041EA060195F047
:10534000000F18BF704703F00046520043EB030301
:1053500013F4801F08BF013DF7D043EA06037047EE
:1053600094EA0C0F0CEA135518BF95EA0C0F0CD0F9
:1053700050EA410618BF52EA4306D1D181EA03013F
:1053800001F000414FF0000070BD50EA410606BF39
:105390001046194652EA430619D094EA0C0F02D17E
:1053A00050EA013613D195EA0C0F05D152EA0336C3
:1053B0001CBF104619460AD181EA030101F00041E1
:1053C00041F0FE4141F470014FF0000070BD41F02A
:1053D000FE4141F4780170BD70B54FF0FF0C4CF404
:1053E000E06C1CEA11541DBF1CEA135594EA0C0F23
:1053F00095EA0C0F00F0A7F8A4EB050481EA030E70
:1054000052EA03354FEA013100F088804FEA033356
:105410004FF0805545EA131343EA12634FEA022224
:1054200045EA111545EA10654FEA00260EF00041E5
:105430009D4208BF964244F1FD0404F5407402D237
:105440005B084FEA3202B61A65EB03055B084FEAC8
:1054500032024FF480104FF4002CB6EB020E75EBC5
:10546000030E22BFB61A754640EA0C005B084FEAED
:105470003202B6EB020E75EB030E22BFB61A75466A
:1054800040EA5C005B084FEA3202B6EB020E75EBB5
:10549000030E22BFB61A754640EA9C005B084FEA2D
:1054A0003202B6EB020E75EB030E22BFB61A75463A
:1054B00040EADC0055EA060E18D04FEA051545EA29
:1054C00016754FEA06164FEAC30343EA52734FEAD2
:1054D000C2025FEA1C1CC0D111F4801F0BD141EA4B
:1054E00000014FF000004FF0004CB6E711F4801FB0
:1054F00004BF01430020B4F1FD0C88BFBCF5E06F90
:105500003FF6AFAEB5EB030C04BFB6EB020C5FEA9F
:10551000500C50F1000041EB045170BD0EF0004EF4
:105520004EEA113114EB5C04C2BFD4EB0C0541EA26
:10553000045170BD41F480114FF0000E013C90E623
:1055400045EA060E8DE60CEA135594EA0C0F08BFE7
:1055500095EA0C0F3FF43BAF94EA0C0F0AD150EAE6
:1055600001347FF434AF95EA0C0F7FF425AF104679
:1055700019462CE795EA0C0F06D152EA03353FF4A1
:10558000FDAE1046194622E750EA410618BF52EA1E
:1055900043067FF4C5AE50EA41047FF40DAF52EAF2
:1055A00043057FF4EBAE12E74FF0FF3C06E000BF8F
:1055B0004FF0010C02E000BF4FF0010C4DF804CD9C
:1055C0004FEA410C7FEA6C5C4FEA430C18BF7FEA5C
:1055D0006C5C1BD001B050EA410C0CBF52EA430C8A
:1055E00091EA030F02BF90EA020F0020704710F10A
:1055F000000F91EA030F58BF994208BF90422CBF99
:10560000D8176FEAE37040F0010070474FEA410C91
:105610007FEA6C5C02D150EA013C07D14FEA430CAF
:105620007FEA6C5CD6D152EA033CD3D05DF8040B20
:10563000704700BF8446104662468C461946634652
:1056400000E000BF01B5FFF7B7FF002848BF10F129
:10565000000F01BD4DF808EDFFF7F4FF0CBF01206E
:1056600000205DF808FB00BF4DF808EDFFF7EAFFEA
:1056700034BF012000205DF808FB00BF4DF808EDA5
:10568000FFF7E0FF94BF012000205DF808FB00BF9A
:105690004DF808EDFFF7CEFF94BF012000205DF824
:1056A00008FB00BF4DF808EDFFF7C4FF34BF012031
:1056B00000205DF808FB00BF4FEA410C7FEA6C5CFC
:1056C00002D150EA013C0AD14FEA430C7FEA6C5CFC
:1056D00002D152EA033C02D14FF0000070474FF074
:1056E000010070474FEA410212F5001215D211D5A0
:1056F0006FF47873B3EB625212D94FEAC12343F0CF
:10570000004343EA505311F0004F23FA02F018BF50
:10571000404270474FF00000704750EA013005D119
:1057200011F0004008BF6FF0004070474FF00000DC
:10573000704700BF53B94AB9002908BF00281CBFF1
:105740004FF0FF314FF0FF3000F072B9ADF1080CAF
:105750006DE904CE00F006F8DDF804E0DDE902238F
:1057600004B070472DE9F047089E04468846002B98
:105770004BD18A42154667D9B2FA82F24AB1C2F1D8
:10578000200701FA02F320FA07F7954047EA0308D9
:1057900094404FEA154E230CB8FBFEF71FFA85FC28
:1057A0000EFB178843EA084307FB0CF1994209D91D
:1057B000EB1807F1FF3080F01B81994240F218810D
:1057C000023F2B445B1AA4B2B3FBFEF00EFB103376
:1057D00044EA034400FB0CFCA44509D92C1900F150
:1057E000FF3380F00781A44540F2048102382C4445
:1057F00040EA0740A4EB0C0400271EB1D44000236C
:10580000C6E900433946BDE8F0878B4209D9002E2E
:1058100000F0EB800027C6E9000138463946BDE8B4
:10582000F087B3FA83F7002F47D18B4202D382422D
:1058300000F2FA80841A61EB030301209846002EDF
:10584000E0D0C6E90048DDE702B9FFDEB2FA82F235
:10585000002A40F08F80491B4FEA154E1FFA85F849
:105860000127B1FBFEFC230C0EFB1C1143EA014394
:1058700008FB0CF1994207D9EB180CF1FF3002D26A
:10588000994200F2CD808446591AA3B2B1FBFEF0D2
:105890000EFB101443EA044408FB00F8A04507D9A6
:1058A0002C1900F1FF3302D2A04500F2B680184651
:1058B000A4EB080440EA0C409FE7C7F1200CBB4072
:1058C00022FA0CFE4EEA030E01FA07F420FA0CF558
:1058D00021FA0CF34FEA1E482543B3FBF8F92C0CD0
:1058E00008FB19331FFA8EFA44EA034309FB0AF452
:1058F0009C4202FA07F200FA07F10BD91EEB0303F0
:1059000009F1FF3080F087809C4240F28480A9F149
:10591000020973441B1BADB2B3FBF8F008FB103354
:1059200045EA034400FB0AFAA24508D91EEB040429
:1059300000F1FF336BD2A24569D90238744440EAC2
:105940000940A0FB0289A4EB0A044C45C2464B4621
:1059500054D351D0002E69D0B1EB0A0564EB030497
:1059600004FA0CFCFD40FC404CEA0505C6E9005475
:10597000002747E7C2F1200320FA03F7954001FA18
:1059800002F021FA03F34FEA154E3843010CB3FB42
:10599000FEF71FFA85F80EFB173341EA034107FBB8
:1059A00008F38B4204FA02F407D9691807F1FF3CA7
:1059B0002FD28B422DD9023F2944CB1A81B2B3FB9F
:1059C000FEF00EFB103341EA034100FB08F38B426B
:1059D00007D9691800F1FF3C17D28B4215D902385C
:1059E0002944C91A40EA07473BE73746304609E7EA
:1059F0000746E7E61846FBE64145ABD2B8EB020A9C
:105A000069EB0E0201381346A4E76046E9E7184641
:105A100095E76746D1E781467CE702382C4447E7A3
:105A2000ACF1020C2B442FE7384608E73746E9E68D
:105A3000704700BF2E2E2F73797374656D2F7372AC
:105A4000632F73746D333266342D68616C2F7374F9
:105A50006D3332663478785F68616C5F636F72743F
:105A600065782E63000000000000000001020304BE
:105A700001020304060708092E2E2F73797374653B
:105A80006D2F7372632F73746D333266342D6861BA
:105A90006C2F73746D3332663478785F68616C5F35
:105AA0007263632E6300000061626F727428292C98
:105AB0002065786974696E672E2E2E006173736598
:105AC00072745F706172616D2829206661696C650E
:105AD000643A2066696C6520222573222C206C694B
:105AE0006E652025640A0000537461636B20667242
:105AF000616D653A0A000000205230203D202025CB
